{
  "_format": "hh-sol-artifact-1",
  "contractName": "TaskManagerContract",
  "sourceName": "contracts/TaskManager.sol",
  "abi": [
    {
      "anonymous": false,
      "inputs": [
        {
          "indexed": false,
          "internalType": "address",
          "name": "recipient",
          "type": "address"
        },
        {
          "indexed": false,
          "internalType": "string",
          "name": "taskText",
          "type": "string"
        },
        {
          "indexed": false,
          "internalType": "uint256",
          "name": "taskId",
          "type": "uint256"
        }
      ],
      "name": "AddTask",
      "type": "event"
    },
    {
      "anonymous": false,
      "inputs": [
        {
          "indexed": false,
          "internalType": "uint256",
          "name": "taskId",
          "type": "uint256"
        },
        {
          "indexed": false,
          "internalType": "bool",
          "name": "isDeleted",
          "type": "bool"
        }
      ],
      "name": "DeleteTask",
      "type": "event"
    },
    {
      "inputs": [
        {
          "internalType": "string",
          "name": "taskText",
          "type": "string"
        }
      ],
      "name": "addTask",
      "outputs": [],
      "stateMutability": "nonpayable",
      "type": "function"
    },
    {
      "inputs": [
        {
          "internalType": "uint256",
          "name": "taskId",
          "type": "uint256"
        },
        {
          "internalType": "bool",
          "name": "isDeleted",
          "type": "bool"
        }
      ],
      "name": "deleteTask",
      "outputs": [],
      "stateMutability": "nonpayable",
      "type": "function"
    },
    {
      "inputs": [],
      "name": "fetchMyTasks",
      "outputs": [
        {
          "components": [
            {
              "internalType": "uint256",
              "name": "taskId",
              "type": "uint256"
            },
            {
              "internalType": "string",
              "name": "taskText",
              "type": "string"
            },
            {
              "internalType": "bool",
              "name": "isDeleted",
              "type": "bool"
            }
          ],
          "internalType": "struct TaskManagerContract.Task[]",
          "name": "",
          "type": "tuple[]"
        }
      ],
      "stateMutability": "view",
      "type": "function"
    }
  ],
  "bytecode": "0x608060405234801561001057600080fd5b50610f4d806100206000396000f3fe608060405234801561001057600080fd5b50600436106100415760003560e01c80636723856214610046578063aaba290714610062578063f79fb2ab1461007e575b600080fd5b610060600480360381019061005b919061074f565b61009c565b005b61007c60048036038101906100779190610806565b6101c1565b005b6100866102dc565b60405161009391906109f5565b60405180910390f35b6000808054905090506000604051806060016040528083815260200184815260200160001515815250908060018154018082558091505060019003906000526020600020906003020160009091909190915060008201518160000155602082015181600101908161010d9190610c23565b5060408201518160020160006101000a81548160ff0219169083151502179055505050336001600083815260200190815260200160002060006101000a81548173ffffffffffffffffffffffffffffffffffffffff021916908373ffffffffffffffffffffffffffffffffffffffff1602179055507f2b3c6616b7b3ddd75d553a88eafc29a404ecd843fa1b123a672b2abe359ab7e93383836040516101b593929190610d8f565b60405180910390a15050565b3373ffffffffffffffffffffffffffffffffffffffff166001600084815260200190815260200160002060009054906101000a900473ffffffffffffffffffffffffffffffffffffffff1673ffffffffffffffffffffffffffffffffffffffff1614610262576040517f08c379a000000000000000000000000000000000000000000000000000000000815260040161025990610e19565b60405180910390fd5b806000838154811061027757610276610e39565b5b906000526020600020906003020160020160006101000a81548160ff0219169083151502179055507ff88a35c3d2016c409a46570b994a17b408dbc83c14a03f521512d50b85386d0682826040516102d0929190610e77565b60405180910390a15050565b60606000808054905067ffffffffffffffff8111156102fe576102fd610624565b5b60405190808252806020026020018201604052801561033757816020015b6103246105d2565b81526020019060019003908161031c5790505b5090506000805b600080549050811015610518573373ffffffffffffffffffffffffffffffffffffffff166001600083815260200190815260200160002060009054906101000a900473ffffffffffffffffffffffffffffffffffffffff1673ffffffffffffffffffffffffffffffffffffffff161480156103ef575060001515600082815481106103cc576103cb610e39565b5b906000526020600020906003020160020160009054906101000a900460ff161515145b15610505576000818154811061040857610407610e39565b5b90600052602060002090600302016040518060600160405290816000820154815260200160018201805461043b90610a46565b80601f016020809104026020016040519081016040528092919081815260200182805461046790610a46565b80156104b45780601f10610489576101008083540402835291602001916104b4565b820191906000526020600020905b81548152906001019060200180831161049757829003601f168201915b505050505081526020016002820160009054906101000a900460ff1615151515815250508383815181106104eb576104ea610e39565b5b6020026020010181905250818061050190610ecf565b9250505b808061051090610ecf565b91505061033e565b5060008167ffffffffffffffff81111561053557610534610624565b5b60405190808252806020026020018201604052801561056e57816020015b61055b6105d2565b8152602001906001900390816105535790505b50905060005b828110156105c85783818151811061058f5761058e610e39565b5b60200260200101518282815181106105aa576105a9610e39565b5b602002602001018190525080806105c090610ecf565b915050610574565b5080935050505090565b604051806060016040528060008152602001606081526020016000151581525090565b6000604051905090565b600080fd5b600080fd5b600080fd5b600080fd5b6000601f19601f8301169050919050565b7f4e487b7100000000000000000000000000000000000000000000000000000000600052604160045260246000fd5b61065c82610613565b810181811067ffffffffffffffff8211171561067b5761067a610624565b5b80604052505050565b600061068e6105f5565b905061069a8282610653565b919050565b600067ffffffffffffffff8211156106ba576106b9610624565b5b6106c382610613565b9050602081019050919050565b82818337600083830152505050565b60006106f26106ed8461069f565b610684565b90508281526020810184848401111561070e5761070d61060e565b5b6107198482856106d0565b509392505050565b600082601f83011261073657610735610609565b5b81356107468482602086016106df565b91505092915050565b600060208284031215610765576107646105ff565b5b600082013567ffffffffffffffff81111561078357610782610604565b5b61078f84828501610721565b91505092915050565b6000819050919050565b6107ab81610798565b81146107b657600080fd5b50565b6000813590506107c8816107a2565b92915050565b60008115159050919050565b6107e3816107ce565b81146107ee57600080fd5b50565b600081359050610800816107da565b92915050565b6000806040838503121561081d5761081c6105ff565b5b600061082b858286016107b9565b925050602061083c858286016107f1565b9150509250929050565b600081519050919050565b600082825260208201905092915050565b6000819050602082019050919050565b61087b81610798565b82525050565b600081519050919050565b600082825260208201905092915050565b60005b838110156108bb5780820151818401526020810190506108a0565b60008484015250505050565b60006108d282610881565b6108dc818561088c565b93506108ec81856020860161089d565b6108f581610613565b840191505092915050565b610909816107ce565b82525050565b60006060830160008301516109276000860182610872565b506020830151848203602086015261093f82826108c7565b91505060408301516109546040860182610900565b508091505092915050565b600061096b838361090f565b905092915050565b6000602082019050919050565b600061098b82610846565b6109958185610851565b9350836020820285016109a785610862565b8060005b858110156109e357848403895281516109c4858261095f565b94506109cf83610973565b925060208a019950506001810190506109ab565b50829750879550505050505092915050565b60006020820190508181036000830152610a0f8184610980565b905092915050565b7f4e487b7100000000000000000000000000000000000000000000000000000000600052602260045260246000fd5b60006002820490506001821680610a5e57607f821691505b602082108103610a7157610a70610a17565b5b50919050565b60008190508160005260206000209050919050565b60006020601f8301049050919050565b600082821b905092915050565b600060088302610ad97fffffffffffffffffffffffffffffffffffffffffffffffffffffffffffffffff82610a9c565b610ae38683610a9c565b95508019841693508086168417925050509392505050565b6000819050919050565b6000610b20610b1b610b1684610798565b610afb565b610798565b9050919050565b6000819050919050565b610b3a83610b05565b610b4e610b4682610b27565b848454610aa9565b825550505050565b600090565b610b63610b56565b610b6e818484610b31565b505050565b5b81811015610b9257610b87600082610b5b565b600181019050610b74565b5050565b601f821115610bd757610ba881610a77565b610bb184610a8c565b81016020851015610bc0578190505b610bd4610bcc85610a8c565b830182610b73565b50505b505050565b600082821c905092915050565b6000610bfa60001984600802610bdc565b1980831691505092915050565b6000610c138383610be9565b9150826002028217905092915050565b610c2c82610881565b67ffffffffffffffff811115610c4557610c44610624565b5b610c4f8254610a46565b610c5a828285610b96565b600060209050601f831160018114610c8d5760008415610c7b578287015190505b610c858582610c07565b865550610ced565b601f198416610c9b86610a77565b60005b82811015610cc357848901518255600182019150602085019450602081019050610c9e565b86831015610ce05784890151610cdc601f891682610be9565b8355505b6001600288020188555050505b505050505050565b600073ffffffffffffffffffffffffffffffffffffffff82169050919050565b6000610d2082610cf5565b9050919050565b610d3081610d15565b82525050565b600082825260208201905092915050565b6000610d5282610881565b610d5c8185610d36565b9350610d6c81856020860161089d565b610d7581610613565b840191505092915050565b610d8981610798565b82525050565b6000606082019050610da46000830186610d27565b8181036020830152610db68185610d47565b9050610dc56040830184610d80565b949350505050565b7f4f6e6c79207461736b206f776e65722063616e2064656c657465207461736b00600082015250565b6000610e03601f83610d36565b9150610e0e82610dcd565b602082019050919050565b60006020820190508181036000830152610e3281610df6565b9050919050565b7f4e487b7100000000000000000000000000000000000000000000000000000000600052603260045260246000fd5b610e71816107ce565b82525050565b6000604082019050610e8c6000830185610d80565b610e996020830184610e68565b9392505050565b7f4e487b7100000000000000000000000000000000000000000000000000000000600052601160045260246000fd5b6000610eda82610798565b91507fffffffffffffffffffffffffffffffffffffffffffffffffffffffffffffffff8203610f0c57610f0b610ea0565b5b60018201905091905056fea26469706673582212204229b1786e5f3959e0d323242c54533ff1e23a008a3c4dc33e03326d74654b8c64736f6c63430008110033",
  "linkReferences": {},
  "deployedLinkReferences": {}
}